{"abi":[{"type":"constructor","inputs":[{"name":"_orgName","type":"string","internalType":"string"},{"name":"_orgSymbol","type":"string","internalType":"string"},{"name":"_orgURI","type":"string","internalType":"string"},{"name":"_salt","type":"bytes32","internalType":"bytes32"}],"stateMutability":"nonpayable"},{"type":"receive","stateMutability":"payable"},{"type":"function","name":"DAICO","inputs":[],"outputs":[{"name":"","type":"address","internalType":"address"}],"stateMutability":"view"},{"type":"function","name":"FW","inputs":[],"outputs":[{"name":"","type":"address","internalType":"address"}],"stateMutability":"view"},{"type":"function","name":"LOOT_IMPL","inputs":[],"outputs":[{"name":"","type":"address","internalType":"address"}],"stateMutability":"view"},{"type":"function","name":"MINT_PRICE","inputs":[],"outputs":[{"name":"","type":"uint256","internalType":"uint256"}],"stateMutability":"view"},{"type":"function","name":"MOLOCH_IMPL","inputs":[],"outputs":[{"name":"","type":"address","internalType":"address"}],"stateMutability":"view"},{"type":"function","name":"QUORUM_BPS","inputs":[],"outputs":[{"name":"","type":"uint16","internalType":"uint16"}],"stateMutability":"view"},{"type":"function","name":"RENDERER","inputs":[],"outputs":[{"name":"","type":"address","internalType":"address"}],"stateMutability":"view"},{"type":"function","name":"SHARES_IMPL","inputs":[],"outputs":[{"name":"","type":"address","internalType":"address"}],"stateMutability":"view"},{"type":"function","name":"SUMMONER","inputs":[],"outputs":[{"name":"","type":"address","internalType":"address"}],"stateMutability":"view"},{"type":"function","name":"TIMELOCK_SECS","inputs":[],"outputs":[{"name":"","type":"uint64","internalType":"uint64"}],"stateMutability":"view"},{"type":"function","name":"VOTING_SECS","inputs":[],"outputs":[{"name":"","type":"uint64","internalType":"uint64"}],"stateMutability":"view"},{"type":"function","name":"allNftIds","inputs":[],"outputs":[{"name":"","type":"uint256[]","internalType":"uint256[]"}],"stateMutability":"view"},{"type":"function","name":"burnToDAO","inputs":[{"name":"tokenId","type":"uint256","internalType":"uint256"}],"outputs":[],"stateMutability":"nonpayable"},{"type":"function","name":"burner","inputs":[],"outputs":[{"name":"","type":"address","internalType":"address"}],"stateMutability":"view"},{"type":"function","name":"closeSale","inputs":[],"outputs":[],"stateMutability":"nonpayable"},{"type":"function","name":"dao","inputs":[],"outputs":[{"name":"","type":"address","internalType":"address"}],"stateMutability":"view"},{"type":"function","name":"deadline","inputs":[],"outputs":[{"name":"","type":"uint256","internalType":"uint256"}],"stateMutability":"view"},{"type":"function","name":"execute","inputs":[{"name":"target","type":"address","internalType":"address"},{"name":"value","type":"uint256","internalType":"uint256"},{"name":"data","type":"bytes","internalType":"bytes"}],"outputs":[{"name":"","type":"bytes","internalType":"bytes"}],"stateMutability":"nonpayable"},{"type":"function","name":"holdsNft","inputs":[{"name":"tokenId","type":"uint256","internalType":"uint256"}],"outputs":[{"name":"","type":"bool","internalType":"bool"}],"stateMutability":"view"},{"type":"function","name":"mintFromBalance","inputs":[{"name":"quantity","type":"uint256","internalType":"uint256"}],"outputs":[{"name":"tokenIds","type":"uint256[]","internalType":"uint256[]"}],"stateMutability":"nonpayable"},{"type":"function","name":"mintFromTap","inputs":[{"name":"quantity","type":"uint256","internalType":"uint256"}],"outputs":[{"name":"tokenIds","type":"uint256[]","internalType":"uint256[]"}],"stateMutability":"nonpayable"},{"type":"function","name":"mintableFromBalance","inputs":[],"outputs":[{"name":"","type":"uint256","internalType":"uint256"}],"stateMutability":"view"},{"type":"function","name":"mintableFromTap","inputs":[],"outputs":[{"name":"","type":"uint256","internalType":"uint256"}],"stateMutability":"view"},{"type":"function","name":"nftCount","inputs":[],"outputs":[{"name":"","type":"uint256","internalType":"uint256"}],"stateMutability":"view"},{"type":"function","name":"nftIds","inputs":[{"name":"","type":"uint256","internalType":"uint256"}],"outputs":[{"name":"","type":"uint256","internalType":"uint256"}],"stateMutability":"view"},{"type":"function","name":"onERC721Received","inputs":[{"name":"","type":"address","internalType":"address"},{"name":"","type":"address","internalType":"address"},{"name":"","type":"uint256","internalType":"uint256"},{"name":"","type":"bytes","internalType":"bytes"}],"outputs":[{"name":"","type":"bytes4","internalType":"bytes4"}],"stateMutability":"pure"},{"type":"function","name":"shares","inputs":[],"outputs":[{"name":"","type":"address","internalType":"address"}],"stateMutability":"view"},{"type":"function","name":"sweep","inputs":[],"outputs":[],"stateMutability":"nonpayable"},{"type":"function","name":"totalLockedEth","inputs":[],"outputs":[{"name":"total","type":"uint256","internalType":"uint256"}],"stateMutability":"view"},{"type":"event","name":"BurnedToDAO","inputs":[{"name":"tokenId","type":"uint256","indexed":false,"internalType":"uint256"},{"name":"ethRecovered","type":"uint256","indexed":false,"internalType":"uint256"}],"anonymous":false},{"type":"event","name":"Minted","inputs":[{"name":"tokenIds","type":"uint256[]","indexed":false,"internalType":"uint256[]"},{"name":"ethSpent","type":"uint256","indexed":false,"internalType":"uint256"}],"anonymous":false},{"type":"event","name":"SaleClosed","inputs":[{"name":"sharesBurned","type":"uint256","indexed":false,"internalType":"uint256"}],"anonymous":false},{"type":"event","name":"Swept","inputs":[{"name":"amount","type":"uint256","indexed":false,"internalType":"uint256"}],"anonymous":false},{"type":"error","name":"NoFunds","inputs":[]},{"type":"error","name":"NotDAO","inputs":[]},{"type":"error","name":"NotHeld","inputs":[]},{"type":"error","name":"NothingToMint","inputs":[]},{"type":"error","name":"Reentrancy","inputs":[]},{"type":"error","name":"SaleActive","inputs":[]}],"bytecode":{"object":"0x6101208060405234610901576129f3803803809161001d8285610ac5565b83398101906080818303126109015780516001600160401b0381116109015782610048918301610ae8565b60208201519091906001600160401b038111610901578361006a918301610ae8565b60408201519093906001600160401b0381116109015760609161008e918401610ae8565b91015160405190929061024f8082016001600160401b03811183821017610a7a5782916127a4833903905ff0801561090c576001600160a01b031660a05260405190608082016001600160401b03811183821017610a7a576040526e330b8df9e3bc5e553074da58ee9138825273643a45b599d81be3f3a68f37eb3de55ff10673c160208301527371e9b38d301b5a58cb998c1295045fe276acf6006040830152736f1f2af76a3add953277e9f369242697c87bc6a560608301526020926040519061015a8583610ac5565b5f82525f36813760405161016e8682610ac5565b5f81525f3681375f61010060405161018581610a8e565b82815282898201528260408201528260608201528260808201528260a08201528260c08201528260e0820152015260405163931e2e4960e01b8152868160048173b33d806a94b6770c9d309e0842a75f8e6edcd5a65afa90811561090c575f91610a4d575b506040516383ea6e9760e01b8152878160048173b33d806a94b6770c9d309e0842a75f8e6edcd5a65afa90811561090c575f91610a1b575b5061023a64ffffffffff9189979896939b959b610b3d565b16916040519261024984610a8e565b5f8452670de0b6b3a76400008785015269eb498091145264200000604085015269d3c21bcecceda1000000606085015260808401525f60a08401526103e860c0840152606460e08401525f610100840152604051916102a783610aaa565b3083526001600160801b03878401525f19604080850191909152516102cc8882610ac5565b5f81525f36813761030961032f898d61031b6040516102eb8482610ac5565b5f81525f368137604051958694850197606089526080860190610b82565b848103601f1901604086015290610bbe565b90606083015203601f198101835282610ac5565b51902060405171602d5f8160095f39f35f5f365f5f37365f7360701b8982019081527f643a45b599d81be3f3a68f37eb3de55ff10673c100000000000000000000000060328301526f5af43d5f5f3e6029573d5ffd5b3d5ff360801b604683015260368252906103a0605682610ac5565b519020604051908982019260ff60f81b84527a330b8df9e3bc5e553074da58ee9138000000000000000000000000602184015260358301526055820152605581526103ec607582610ac5565b5190206001600160a01b0381169b90610413908d9060601b6001600160601b031916610bf1565b60405163ebfaf04560e01b8a8201526001600160a01b03909116602482015260448082018e9052815295610448606488610ac5565b60809c8d978d6040519961045c818c610ac5565b60038b525f5b601f19820181106109d35750508b9060405163ff39146760e01b838201526024810161a8c0905260248152610498604482610ac5565b604051906104a582610aaa565b8582525f8483015260408201526104bb8c610cb1565b526104c58b610cb1565b50604051631c10c99d60e11b838201526024810161a8c09052602481526104ed604482610ac5565b604051906104fa82610aaa565b8582525f8483015260408201526105108c610cd2565b5261051a8b610cd2565b5060a05160405163048dd2c160e21b93810193909352600160248401526001600160a01b031660448301525f606483015260e06084830152909182919061056690610104840190610b5e565b9060a48301523060c483015260e482016001905203601f198101825261058c9082610ac5565b6040519161059983610aaa565b82525f8b83015260408201526105ae88610ce2565b526105b887610ce2565b50604080516305ce09a560e41b815289516001600160a01b03908116600483015260208b015181166024830152918a01518216604482015260609099015116606489015261038060848901529698899790610618906103848a0190610b5e565b8881036003190160a48a015261062d91610b5e565b8781036003190160c489015261064291610b5e565b6105dc60e488015260016101048801526e11c799980827f52d3137b4abd6e65461012488015261014487018b90528681036003190161016488015261068691610b82565b8581036003190161018487015261069c91610bbe565b5f6101a486018190526101c4860181905283516001600160a01b039081166101e4880152878501516102048801526040808601516102248901526060860151610244890152608086015164ffffffffff1661026489015260a0860151151561028489015260c086015161ffff9081166102a48a015260e0870151166102c4890152610100909501516102e4880152835116610304870152828701516001600160801b03166103248701529190920151610344850152838203600319016103648501528251808352600581901b8301860193860192909190868101905b838310610983575050505050819003815f6e33e92db97b4b3becd2c255126c60ac5af190811561090c575f91610946575b50835260405163931e2e4960e01b815290808260048173b33d806a94b6770c9d309e0842a75f8e6edcd5a65afa91821561090c575f92610917575b506040516383ea6e9760e01b815291818360048173b33d806a94b6770c9d309e0842a75f8e6edcd5a65afa91821561090c575f926108d6575b506108289250610b3d565b60e052610100528051610852906001600160a01b0381169060601b6001600160601b031916610bf1565b60c052604051611ab19182610cf383395181818161030d01528181610553015281816109f801528181610bf101528181610ef301528181610f470152818161122d015261181b015260a0518181816103e80152611133015260c0518181816102ae0152611421015260e05181818161027101526110c6015261010051816104260152f35b90915082813d8311610905575b6108ed8183610ac5565b81010312610901576108289151905f61081d565b5f80fd5b503d6108e3565b6040513d5f823e3d90fd5b9080925081813d831161093f575b61092f8183610ac5565b810103126109015751905f6107e4565b503d610925565b90508181813d831161097c575b61095d8183610ac5565b8101031261090157516001600160a01b0381168103610901575f6107a9565b503d610953565b9295509295806109c260019396601f19868203018752606060408b51878060a01b03815116845285810151868501520151918160408201520190610b5e565b970193019301879593879592610778565b9092939496989a8d9c9e96989a9c819e935082604051926109f384610aaa565b5f84525f8385015260606040850152010152018d9b9997959392918f919d9b9997959d610462565b90508781813d8311610a46575b610a328183610ac5565b81010312610901575164ffffffffff610222565b503d610a28565b90508681813d8311610a73575b610a648183610ac5565b8101031261090157515f6101ea565b503d610a5a565b634e487b7160e01b5f52604160045260245ffd5b61012081019081106001600160401b03821117610a7a57604052565b606081019081106001600160401b03821117610a7a57604052565b601f909101601f19168101906001600160401b03821190821017610a7a57604052565b81601f82011215610901578051906001600160401b038211610a7a5760405192610b1c601f8401601f191660200185610ac5565b8284526020838301011161090157815f9260208093018386015e8301015290565b91908201809211610b4a57565b634e487b7160e01b5f52601160045260245ffd5b805180835260209291819084018484015e5f828201840152601f01601f1916010190565b90602080835192838152019201905f5b818110610b9f5750505090565b82516001600160a01b0316845260209384019390920191600101610b92565b90602080835192838152019201905f5b818110610bdb5750505090565b8251845260209384019390920191600101610bce565b60405171602d5f8160095f39f35f5f365f5f37365f7360701b602082019081527f71e9b38d301b5a58cb998c1295045fe276acf60000000000000000000000000060328301526f5af43d5f5f3e6029573d5ffd5b3d5ff360801b60468301526036825291929190610c63605682610ac5565b51902060405192602084019260ff60f81b845260018060601b03199060601b1660218501526035840152605583015260558252610ca1607583610ac5565b905190206001600160a01b031690565b805115610cbe5760200190565b634e487b7160e01b5f52603260045260245ffd5b805160011015610cbe5760400190565b805160021015610cbe576060019056fe608080604052600436101561001c575b50361561001a575f80fd5b005b5f905f3560e01c90816303314efa146113d957508063089ba42e1461138f5780630af2c6ca14611355578063150b7a02146112c85780631aea8a1f146111a35780632659bf261461115757806327810b6e146110e957806329dcb0cf146110915780632dd1c3191461104557806335faa41614610f175780634162169f14610ea95780635092983014610e625780636b93e8ce14610e1f5780636cd2b36f14610dd8578063794b0c6214610d91578063a8b21c1b14610d57578063b47bcc3814610a9b578063b4d7d5bf14610cb3578063b61d27f614610b81578063bfb6522614610b35578063c002d23d14610af5578063c6c9bd4714610aa0578063c886cba514610a9b578063ce4645081461098d578063d502553414610941578063e1e60edf1461084b578063e26898811461051e578063ee55efee146102405763f9b105bf0361000f573461023d5760207ffffffffffffffffffffffffffffffffffffffffffffffffffffffffffffffffc36011261023d576002549060ff82166102155760017fffffffffffffffffffffffffffffffffffffffffffffffffffffffffffffff008316176002556102116101d56004356116b1565b7fffffffffffffffffffffffffffffffffffffffffffffffffffffffffffffff00600254166002556040519182916020835260208301906114b9565b0390f35b807fab143c060000000000000000000000000000000000000000000000000000000060049252fd5b80fd5b503461023d57807ffffffffffffffffffffffffffffffffffffffffffffffffffffffffffffffffc36011261023d577f00000000000000000000000000000000000000000000000000000000000000004211156104f65773ffffffffffffffffffffffffffffffffffffffff7f00000000000000000000000000000000000000000000000000000000000000001681604051917f70a0823100000000000000000000000000000000000000000000000000000000835273ffffffffffffffffffffffffffffffffffffffff7f000000000000000000000000000000000000000000000000000000000000000016806004850152602084602481855afa9384156104eb5783946104b0575b50604051917febfaf04500000000000000000000000000000000000000000000000000000000602084015260248301528060448301526044825261038f6064836115ac565b803b156104ac5761042483929183926040519485809481937fa88413660000000000000000000000000000000000000000000000000000000083526001600484015273ffffffffffffffffffffffffffffffffffffffff7f000000000000000000000000000000000000000000000000000000000000000016602484015283604484015260a0606484015260a4830190611526565b7f0000000000000000000000000000000000000000000000000000000000000000608483015203925af180156104a157610488575b507fcb67f20f64495b30f15524c55f90201dd6571d6b5c19dac183d2aeb25315b2dc602083604051908152a180f35b81610492916115ac565b61049d57815f610459565b5080fd5b6040513d84823e3d90fd5b8280fd5b925092506020823d6020116104e3575b816104cd602093836115ac565b810103126104df57839151925f61034a565b5f80fd5b3d91506104c0565b6040513d85823e3d90fd5b807ff1d2165f0000000000000000000000000000000000000000000000000000000060049252fd5b50346104df5760207ffffffffffffffffffffffffffffffffffffffffffffffffffffffffffffffffc3601126104df576004357f000000000000000000000000000000000000000000000000000000000000000073ffffffffffffffffffffffffffffffffffffffff811633036108235760025460ff81166107fb577fffffffffffffffffffffffffffffffffffffffffffffffffffffffffffffff0060019116176002556040517f6352211e00000000000000000000000000000000000000000000000000000000815282600482015260208160248173b33d806a94b6770c9d309e0842a75f8e6edcd5a65afa908115610779575f916107ac575b5073ffffffffffffffffffffffffffffffffffffffff3091160361078457479073b33d806a94b6770c9d309e0842a75f8e6edcd5a63b156104df576040517f42966c680000000000000000000000000000000000000000000000000000000081528360048201525f816024818373b33d806a94b6770c9d309e0842a75f8e6edcd5a65af1801561077957610764575b504791808303928084116107375791836040949286946106e97ff7c4ad8543614916150eecfd8e7fb5d87e48adc2a21544d8ef00829814adaad498611935565b03610727575b505082519182526020820152a17fffffffffffffffffffffffffffffffffffffffffffffffffffffffffffffff006002541660025580f35b6107309161191d565b5f816106ef565b6024867f4e487b710000000000000000000000000000000000000000000000000000000081526011600452fd5b6107719194505f906115ac565b5f925f6106a9565b6040513d5f823e3d90fd5b7f845eadf1000000000000000000000000000000000000000000000000000000005f5260045ffd5b90506020813d6020116107f3575b816107c7602093836115ac565b810103126104df575173ffffffffffffffffffffffffffffffffffffffff811681036104df575f61061a565b3d91506107ba565b7fab143c06000000000000000000000000000000000000000000000000000000005f5260045ffd5b7f4ead1a5e000000000000000000000000000000000000000000000000000000005f5260045ffd5b346104df575f7ffffffffffffffffffffffffffffffffffffffffffffffffffffffffffffffffc3601126104df575f5f905f545b80831061089157602082604051908152f35b9061089b83611569565b90549060031b1c604051907f1e1d6b77000000000000000000000000000000000000000000000000000000008252600482015260208160248173b33d806a94b6770c9d309e0842a75f8e6edcd5a65afa908115610779575f9161090f575b5061090690600192611677565b9201919061087f565b90506020813d8211610939575b81610929602093836115ac565b810103126104df575160016108f9565b3d915061091c565b346104df575f7ffffffffffffffffffffffffffffffffffffffffffffffffffffffffffffffffc3601126104df5760206040517371e9b38d301b5a58cb998c1295045fe276acf6008152f35b346104df575f7ffffffffffffffffffffffffffffffffffffffffffffffffffffffffffffffffc3601126104df576040517f531b672200000000000000000000000000000000000000000000000000000000815273ffffffffffffffffffffffffffffffffffffffff7f00000000000000000000000000000000000000000000000000000000000000001660048201526020816024816e33e92db97b4b3becd2c255126c60ac5afa908115610779575f91610a61575b6020670de0b6b3a7640000610a584785611677565b04604051908152f35b90506020813d602011610a93575b81610a7c602093836115ac565b810103126104df5751670de0b6b3a7640000610a43565b3d9150610a6f565b6114ec565b346104df5760207ffffffffffffffffffffffffffffffffffffffffffffffffffffffffffffffffc3601126104df576004355f548110156104df57610ae6602091611569565b90549060031b1c604051908152f35b346104df575f7ffffffffffffffffffffffffffffffffffffffffffffffffffffffffffffffffc3601126104df576020604051670de0b6b3a76400008152f35b346104df575f7ffffffffffffffffffffffffffffffffffffffffffffffffffffffffffffffffc3601126104df576020604051736f1f2af76a3add953277e9f369242697c87bc6a58152f35b346104df5760607ffffffffffffffffffffffffffffffffffffffffffffffffffffffffffffffffc3601126104df57610bb8611445565b60443567ffffffffffffffff81116104df57610bd890369060040161148b565b909173ffffffffffffffffffffffffffffffffffffffff7f0000000000000000000000000000000000000000000000000000000000000000163303610823576002549160ff83166107fb575f9360017fffffffffffffffffffffffffffffffffffffffffffffffffffffffffffffff008695161760025581604051928392833781018481520391602435905af1610c6d61161a565b90156104df57610211907fffffffffffffffffffffffffffffffffffffffffffffffffffffffffffffff0060025416600255604051918291602083526020830190611526565b346104df575f7ffffffffffffffffffffffffffffffffffffffffffffffffffffffffffffffffc3601126104df576040518060205f549182815201905f80527f290decd9548b62a8d60345a988386fc84ba6bc95484008f6362f93160ef3e563905f5b818110610d415761021185610d2d818703826115ac565b6040519182916020835260208301906114b9565b8254845260209093019260019283019201610d16565b346104df575f7ffffffffffffffffffffffffffffffffffffffffffffffffffffffffffffffffc3601126104df5760206040516105dc8152f35b346104df575f7ffffffffffffffffffffffffffffffffffffffffffffffffffffffffffffffffc3601126104df5760206040516e33e92db97b4b3becd2c255126c60ac8152f35b346104df575f7ffffffffffffffffffffffffffffffffffffffffffffffffffffffffffffffffc3601126104df5760206040516e11c799980827f52d3137b4abd6e6548152f35b346104df575f7ffffffffffffffffffffffffffffffffffffffffffffffffffffffffffffffffc3601126104df576020670de0b6b3a76400004704604051908152f35b346104df575f7ffffffffffffffffffffffffffffffffffffffffffffffffffffffffffffffffc3601126104df5760206040516e330b8df9e3bc5e553074da58ee91388152f35b346104df575f7ffffffffffffffffffffffffffffffffffffffffffffffffffffffffffffffffc3601126104df57602060405173ffffffffffffffffffffffffffffffffffffffff7f0000000000000000000000000000000000000000000000000000000000000000168152f35b346104df575f7ffffffffffffffffffffffffffffffffffffffffffffffffffffffffffffffffc3601126104df577f000000000000000000000000000000000000000000000000000000000000000073ffffffffffffffffffffffffffffffffffffffff811633036108235760025460ff81166107fb577fffffffffffffffffffffffffffffffffffffffffffffffffffffffffffffff00166001176002554790811561101d5781610fec7f7f221332ee403570bf4d61630b58189ea566ff1635269001e9df6a890f413dd89360209361191d565b604051908152a1600280547fffffffffffffffffffffffffffffffffffffffffffffffffffffffffffffff00169055005b7f43f9e110000000000000000000000000000000000000000000000000000000005f5260045ffd5b346104df575f7ffffffffffffffffffffffffffffffffffffffffffffffffffffffffffffffffc3601126104df57602060405173b33d806a94b6770c9d309e0842a75f8e6edcd5a68152f35b346104df575f7ffffffffffffffffffffffffffffffffffffffffffffffffffffffffffffffffc3601126104df5760206040517f00000000000000000000000000000000000000000000000000000000000000008152f35b346104df575f7ffffffffffffffffffffffffffffffffffffffffffffffffffffffffffffffffc3601126104df57602060405173ffffffffffffffffffffffffffffffffffffffff7f0000000000000000000000000000000000000000000000000000000000000000168152f35b346104df575f7ffffffffffffffffffffffffffffffffffffffffffffffffffffffffffffffffc3601126104df57602060405173643a45b599d81be3f3a68f37eb3de55ff10673c18152f35b346104df5760207ffffffffffffffffffffffffffffffffffffffffffffffffffffffffffffffffc3601126104df5760025460ff81166107fb577fffffffffffffffffffffffffffffffffffffffffffffffffffffffffffffff00166001176002556040517fe9633f200000000000000000000000000000000000000000000000000000000081527f000000000000000000000000000000000000000000000000000000000000000073ffffffffffffffffffffffffffffffffffffffff1660048201526020816024815f6e33e92db97b4b3becd2c255126c60ac5af1801561077957611299575b6102116101d56004356116b1565b6020813d6020116112c0575b816112b2602093836115ac565b810103126104df575161128b565b3d91506112a5565b346104df5760807ffffffffffffffffffffffffffffffffffffffffffffffffffffffffffffffffc3601126104df576112ff611445565b50611308611468565b5060643567ffffffffffffffff81116104df5761132990369060040161148b565b505060206040517f150b7a02000000000000000000000000000000000000000000000000000000008152f35b346104df575f7ffffffffffffffffffffffffffffffffffffffffffffffffffffffffffffffffc3601126104df5760205f54604051908152f35b346104df5760207ffffffffffffffffffffffffffffffffffffffffffffffffffffffffffffffffc3601126104df576004355f526001602052602060405f20541515604051908152f35b346104df575f7ffffffffffffffffffffffffffffffffffffffffffffffffffffffffffffffffc3601126104df5760209073ffffffffffffffffffffffffffffffffffffffff7f0000000000000000000000000000000000000000000000000000000000000000168152f35b6004359073ffffffffffffffffffffffffffffffffffffffff821682036104df57565b6024359073ffffffffffffffffffffffffffffffffffffffff821682036104df57565b9181601f840112156104df5782359167ffffffffffffffff83116104df57602083818601950101116104df57565b90602080835192838152019201905f5b8181106114d65750505090565b82518452602093840193909201916001016114c9565b346104df575f7ffffffffffffffffffffffffffffffffffffffffffffffffffffffffffffffffc3601126104df57602060405161a8c08152f35b907fffffffffffffffffffffffffffffffffffffffffffffffffffffffffffffffe0601f602080948051918291828752018686015e5f8582860101520116010190565b5f5481101561157f575f805260205f2001905f90565b7f4e487b71000000000000000000000000000000000000000000000000000000005f52603260045260245ffd5b90601f7fffffffffffffffffffffffffffffffffffffffffffffffffffffffffffffffe0910116810190811067ffffffffffffffff8211176115ed57604052565b7f4e487b71000000000000000000000000000000000000000000000000000000005f52604160045260245ffd5b3d15611672573d9067ffffffffffffffff82116115ed576040519161166760207fffffffffffffffffffffffffffffffffffffffffffffffffffffffffffffffe0601f84011601846115ac565b82523d5f602084013e565b606090565b9190820180921161168457565b7f4e487b71000000000000000000000000000000000000000000000000000000005f52601160045260245ffd5b4791811561190b575b81156118e357670de0b6b3a7640000820292828404670de0b6b3a76400000361168457831161101d57604051917fa0712d6800000000000000000000000000000000000000000000000000000000835260048301525f826024818673b33d806a94b6770c9d309e0842a75f8e6edcd5a65af1918215610779575f92611845575b5081905f5b83518110156117c55760208160051b85010151905f5491680100000000000000008310156115ed576117b18161177b8560018097015f55611569565b9091907fffffffffffffffffffffffffffffffffffffffffffffffffffffffffffffffff83549160031b92831b921b1916179055565b5f54905f528260205260405f20550161173f565b509161180a907fea0f04b41cddd5ec500067efe1bf727bd9f9e0e68479eb7a80f9bad59bb43f3492944780611815575b506040519283926040845260408401906114b9565b9060208301520390a1565b61183f907f000000000000000000000000000000000000000000000000000000000000000061191d565b5f6117f5565b9091503d805f833e61185781836115ac565b8101906020818303126104df5780519067ffffffffffffffff82116104df57019080601f830112156104df5781519167ffffffffffffffff83116115ed578260051b90604051936118ab60208401866115ac565b84526020808501928201019283116104df57602001905b8282106118d357505050905f61173a565b81518152602091820191016118c2565b7f448694d6000000000000000000000000000000000000000000000000000000005f5260045ffd5b670de0b6b3a7640000830491506116ba565b5f80809381935af161192d61161a565b50156104df57565b805f52600160205260405f20548015611a77577fffffffffffffffffffffffffffffffffffffffffffffffffffffffffffffffff81015f547fffffffffffffffffffffffffffffffffffffffffffffffffffffffffffffffff810190811161168457808203611a3f575b5050505f548015611a12577fffffffffffffffffffffffffffffffffffffffffffffffffffffffffffffffff016119d581611569565b7fffffffffffffffffffffffffffffffffffffffffffffffffffffffffffffffff82549160031b1b191690555f555f5260016020525f6040812055565b7f4e487b71000000000000000000000000000000000000000000000000000000005f52603160045260245ffd5b611a498391611569565b90549060031b1c91611a5e8361177b83611569565b11611684575f52600160205260405f20555f808061199f565b505056fea264697066735822122054e0bf1ee086f7201df9885af17fe804a1da8601689cc64fa1b5f5f2f32123e264736f6c6343000821003360808060405234601557610235908161001a8239f35b5f80fdfe6080806040526004361015610012575f80fd5b5f905f3560e01c63ebfaf04514610027575f80fd5b346101385760407ffffffffffffffffffffffffffffffffffffffffffffffffffffffffffffffffc360112610138576004359073ffffffffffffffffffffffffffffffffffffffff82168092036101385761008061016e565b507f70a08231000000000000000000000000000000000000000000000000000000008152306004820152602081602481855afa90811561012d575f9161013c575b50806100cb578280f35b813b15610138575f916044839260405194859384927f62a6677b00000000000000000000000000000000000000000000000000000000845230600485015260248401525af1801561012d5761011f57808280f35b61012b91505f90610191565b005b6040513d5f823e3d90fd5b5f80fd5b90506020813d602011610166575b8161015760209383610191565b8101031261013857515f6100c1565b3d915061014a565b6024359073ffffffffffffffffffffffffffffffffffffffff8216820361013857565b90601f7fffffffffffffffffffffffffffffffffffffffffffffffffffffffffffffffe0910116810190811067ffffffffffffffff8211176101d257604052565b7f4e487b71000000000000000000000000000000000000000000000000000000005f52604160045260245ffdfea264697066735822122068d1f04fcad0cd00c7407a29010b84cdc908f2716e39ac8590cb6098012e16d464736f6c63430008210033","linkReferences":{}},"methodIdentifiers":{"DAICO()":"794b0c62","FW()":"2dd1c319","LOOT_IMPL()":"bfb65226","MINT_PRICE()":"c002d23d","MOLOCH_IMPL()":"2659bf26","QUORUM_BPS()":"a8b21c1b","RENDERER()":"6cd2b36f","SHARES_IMPL()":"d5025534","SUMMONER()":"50929830","TIMELOCK_SECS()":"b47bcc38","VOTING_SECS()":"c886cba5","allNftIds()":"b4d7d5bf","burnToDAO(uint256)":"e2689881","burner()":"27810b6e","closeSale()":"ee55efee","dao()":"4162169f","deadline()":"29dcb0cf","execute(address,uint256,bytes)":"b61d27f6","holdsNft(uint256)":"089ba42e","mintFromBalance(uint256)":"f9b105bf","mintFromTap(uint256)":"1aea8a1f","mintableFromBalance()":"6b93e8ce","mintableFromTap()":"ce464508","nftCount()":"0af2c6ca","nftIds(uint256)":"c6c9bd47","onERC721Received(address,address,uint256,bytes)":"150b7a02","shares()":"03314efa","sweep()":"35faa416","totalLockedEth()":"e1e60edf"},"id":20}