{"abi":[{"type":"constructor","inputs":[{"name":"_orgName","type":"string","internalType":"string"},{"name":"_orgSymbol","type":"string","internalType":"string"},{"name":"_orgURI","type":"string","internalType":"string"},{"name":"_salt","type":"bytes32","internalType":"bytes32"}],"stateMutability":"nonpayable"},{"type":"receive","stateMutability":"payable"},{"type":"function","name":"DAICO","inputs":[],"outputs":[{"name":"","type":"address","internalType":"address"}],"stateMutability":"view"},{"type":"function","name":"FW","inputs":[],"outputs":[{"name":"","type":"address","internalType":"address"}],"stateMutability":"view"},{"type":"function","name":"LOOT_IMPL","inputs":[],"outputs":[{"name":"","type":"address","internalType":"address"}],"stateMutability":"view"},{"type":"function","name":"MINT_PRICE","inputs":[],"outputs":[{"name":"","type":"uint256","internalType":"uint256"}],"stateMutability":"view"},{"type":"function","name":"MOLOCH_IMPL","inputs":[],"outputs":[{"name":"","type":"address","internalType":"address"}],"stateMutability":"view"},{"type":"function","name":"QUORUM_BPS","inputs":[],"outputs":[{"name":"","type":"uint16","internalType":"uint16"}],"stateMutability":"view"},{"type":"function","name":"RENDERER","inputs":[],"outputs":[{"name":"","type":"address","internalType":"address"}],"stateMutability":"view"},{"type":"function","name":"SHARES_IMPL","inputs":[],"outputs":[{"name":"","type":"address","internalType":"address"}],"stateMutability":"view"},{"type":"function","name":"SUMMONER","inputs":[],"outputs":[{"name":"","type":"address","internalType":"address"}],"stateMutability":"view"},{"type":"function","name":"TIMELOCK_SECS","inputs":[],"outputs":[{"name":"","type":"uint64","internalType":"uint64"}],"stateMutability":"view"},{"type":"function","name":"VOTING_SECS","inputs":[],"outputs":[{"name":"","type":"uint64","internalType":"uint64"}],"stateMutability":"view"},{"type":"function","name":"allNftIds","inputs":[],"outputs":[{"name":"","type":"uint256[]","internalType":"uint256[]"}],"stateMutability":"view"},{"type":"function","name":"burnToDAO","inputs":[{"name":"tokenId","type":"uint256","internalType":"uint256"}],"outputs":[],"stateMutability":"nonpayable"},{"type":"function","name":"burner","inputs":[],"outputs":[{"name":"","type":"address","internalType":"address"}],"stateMutability":"view"},{"type":"function","name":"closeSale","inputs":[],"outputs":[],"stateMutability":"nonpayable"},{"type":"function","name":"dao","inputs":[],"outputs":[{"name":"","type":"address","internalType":"address"}],"stateMutability":"view"},{"type":"function","name":"deadline","inputs":[],"outputs":[{"name":"","type":"uint256","internalType":"uint256"}],"stateMutability":"view"},{"type":"function","name":"execute","inputs":[{"name":"target","type":"address","internalType":"address"},{"name":"value","type":"uint256","internalType":"uint256"},{"name":"data","type":"bytes","internalType":"bytes"}],"outputs":[{"name":"","type":"bytes","internalType":"bytes"}],"stateMutability":"nonpayable"},{"type":"function","name":"holdsNft","inputs":[{"name":"tokenId","type":"uint256","internalType":"uint256"}],"outputs":[{"name":"","type":"bool","internalType":"bool"}],"stateMutability":"view"},{"type":"function","name":"mintFromBalance","inputs":[{"name":"quantity","type":"uint256","internalType":"uint256"}],"outputs":[{"name":"tokenIds","type":"uint256[]","internalType":"uint256[]"}],"stateMutability":"nonpayable"},{"type":"function","name":"mintFromTap","inputs":[{"name":"quantity","type":"uint256","internalType":"uint256"}],"outputs":[{"name":"tokenIds","type":"uint256[]","internalType":"uint256[]"}],"stateMutability":"nonpayable"},{"type":"function","name":"mintableFromBalance","inputs":[],"outputs":[{"name":"","type":"uint256","internalType":"uint256"}],"stateMutability":"view"},{"type":"function","name":"mintableFromTap","inputs":[],"outputs":[{"name":"","type":"uint256","internalType":"uint256"}],"stateMutability":"view"},{"type":"function","name":"nftCount","inputs":[],"outputs":[{"name":"","type":"uint256","internalType":"uint256"}],"stateMutability":"view"},{"type":"function","name":"nftIds","inputs":[{"name":"","type":"uint256","internalType":"uint256"}],"outputs":[{"name":"","type":"uint256","internalType":"uint256"}],"stateMutability":"view"},{"type":"function","name":"onERC721Received","inputs":[{"name":"","type":"address","internalType":"address"},{"name":"","type":"address","internalType":"address"},{"name":"","type":"uint256","internalType":"uint256"},{"name":"","type":"bytes","internalType":"bytes"}],"outputs":[{"name":"","type":"bytes4","internalType":"bytes4"}],"stateMutability":"pure"},{"type":"function","name":"shares","inputs":[],"outputs":[{"name":"","type":"address","internalType":"address"}],"stateMutability":"view"},{"type":"function","name":"sweep","inputs":[],"outputs":[],"stateMutability":"nonpayable"},{"type":"function","name":"totalLockedEth","inputs":[],"outputs":[{"name":"total","type":"uint256","internalType":"uint256"}],"stateMutability":"view"},{"type":"event","name":"BurnedToDAO","inputs":[{"name":"tokenId","type":"uint256","indexed":false,"internalType":"uint256"},{"name":"ethRecovered","type":"uint256","indexed":false,"internalType":"uint256"}],"anonymous":false},{"type":"event","name":"Minted","inputs":[{"name":"tokenIds","type":"uint256[]","indexed":false,"internalType":"uint256[]"},{"name":"ethSpent","type":"uint256","indexed":false,"internalType":"uint256"}],"anonymous":false},{"type":"event","name":"SaleClosed","inputs":[{"name":"sharesBurned","type":"uint256","indexed":false,"internalType":"uint256"}],"anonymous":false},{"type":"event","name":"Swept","inputs":[{"name":"amount","type":"uint256","indexed":false,"internalType":"uint256"}],"anonymous":false},{"type":"error","name":"NoFunds","inputs":[]},{"type":"error","name":"NotDAO","inputs":[]},{"type":"error","name":"NotHeld","inputs":[]},{"type":"error","name":"NothingToMint","inputs":[]},{"type":"error","name":"Reentrancy","inputs":[]},{"type":"error","name":"SaleActive","inputs":[]}],"bytecode":{"object":"0x610120604052346100c65761001e61001561021c565b929190916102ef565b604051611a10611180823960805181818161055c01528181610b1a01528181610bba01528181610c5101528181610db201528181610f080152818161104a015281816111e601528181611363015281816113c501528181611421015261183e015260a0518181816104920152611447015260c05181818161023a0152818161133401526113a1015260e0518181816104cb01526113010152610100518161146e0152611a1090f35b5f80fd5b634e487b7160e01b5f52604160045260245ffd5b90601f01601f191681019081106001600160401b038211176100ff57604052565b6100ca565b9061011861011160405190565b92836100de565b565b6001600160401b0381116100ff57602090601f01601f19160190565b0190565b90825f9392825e0152565b9092919261015a6101558261011a565b610104565b938185526020850190828401116100c6576101189261013a565b9080601f830112156100c657815161018e92602001610145565b90565b805b036100c657565b9050519061011882610191565b6080818303126100c65780516001600160401b0381116100c657826101cd918301610174565b60208201519093906001600160401b0381116100c657836101ef918401610174565b604083015190936001600160401b0382116100c6576102138161018e938601610174565b9360600161019a565b61023a612e858038038061022f81610104565b9283398101906101a7565b90919293565b6040513d5f823e3d90fd5b61018e9061025f906001600160a01b031682565b6001600160a01b031690565b61018e9061024b565b61018e9061026b565b906020828203126100c65761018e9161019a565b634e487b7160e01b5f52601160045260245ffd5b919082018092116102b257565b610291565b61018e905161025f565b61018e906102d9906001600160a01b03165b60601b90565b6001600160601b03191690565b61018e906102c1565b916102f960405190565b6102f581016001600160401b038111828210176100ff5761032082916102f5612b90843990565b03905ff092831561045d5761033761034294610274565b60a0529184926108d3565b60805261038861036573b33d806a94b6770c9d309e0842a75f8e6edcd5a6610274565b602061037082610274565b63931e2e499061037f60405190565b94859260e01b90565b825260049082905afa90811561045d576103be925f92610462575b506103af602091610274565b6383ea6e979061037f60405190565b825260049082905afa90811561045d576103df925f9261042d575b506102a5565b60e052610100526104287371e9b38d301b5a58cb998c1295045fe276acf60061041861041361040e60806102b7565b6102e6565b6102d9565b61042260806102b7565b91610b32565b60c052565b61044f91925060203d8111610456575b61044781836100de565b81019061027d565b905f6103d9565b503d61043d565b610240565b60209192506104806103af91833d81116104565761044781836100de565b9291506103a3565b61018e6080610104565b9061049c9061025f565b9052565b6104ad61018e61018e9290565b61ffff1690565b61018e6105dc6104a0565b61018e61018e61018e9290565b6001600160401b0381116100ff5760208091020190565b906104f0610155836104cc565b918252565b369037565b90610118610507836104e3565b9260208061051586936104cc565b92019103906104f5565b61018e6060610104565b6101938161025f565b9050519061011882610529565b906020828203126100c65761018e91610532565b61049c9061025f565b90606080610118936105745f8201515f860190610553565b61058660208201516020860190610553565b61059860408201516040860190610553565b0151910190610553565b6105c36105cc602093610136936105b7815190565b80835293849260200190565b9586910161013a565b601f01601f191690565b9061013681602093610553565b906106036105fc6105f2845190565b8084529260200190565b9260200190565b905f5b8181106106135750505090565b90919261062d61062660019286516105d6565b9460200190565b929101610606565b906106446105fc6105f2845190565b905f5b8181106106545750505090565b90919261066a6106266001928651815260200190565b929101610647565b90610100806101189361068b5f8201515f860190610553565b61069a60208201516020860152565b6106a960408201516040860152565b6106b860608201516060860152565b60808181015164ffffffffff169085015260a08181015115159085015260c08181015161ffff169085015260e08181015161ffff16908501525b0151910152565b90604080610118936107115f8201515f860190610553565b6020818101516001600160801b0316908501526106f2565b61018e91604060608201926107445f8201515f850190610553565b61075360208201516020850152565b01519060408184039101526105a2565b9061018e91610729565b90610783610779835190565b8083529160200190565b90816107956020830284019460200190565b925f915b8383106107a857505050505090565b909192939460206107cb6107c483856001950387528951610763565b9760200190565b9301930191939290610799565b9b959861018e9f9d986108c59c9f9b94906101408f6108796108af9c6108ba9f61086e906108646108576108a59f9b9e61089a9f61087d9b61088b9f8a61083b9161082e610849955f610380850194019061055c565b8c820360808e01526105a2565b908a820360a08c01526105a2565b9088820360c08a01526105a2565b61ffff909b1660e0870152565b1515610100850152565b610120830190610553565b0152565b8c82036101608e01526105e3565b908a82036101808c0152610635565b9915156101a0890152565b15156101c0870152565b6101e0850190610672565b6103008301906106f9565b61036081840391015261076d565b90926108ed6e33e92db97b4b3becd2c255126c60ac610274565b6108f690610274565b926e330b8df9e3bc5e553074da58ee913892736f1f2af76a3add953277e9f369242697c87bc6a57371e9b38d301b5a58cb998c1295045fe276acf60073643a45b599d81be3f3a68f37eb3de55ff10673c161094f610488565b9661095a9088610492565b6109679060208801610492565b6109749060408701610492565b6109819060608601610492565b9461098a6104b4565b926e11c799980827f52d3137b4abd6e6549681925f6109a8906104bf565b6109b1906104fa565b916109bb5f6104bf565b6109c4906104fa565b6109cc610c61565b936109d630610274565b955f196001600160801b036109e961051f565b986109f4908a610492565b6001600160801b031660208901526040880152610a1090610f23565b96610a1a60405190565b9c8d9b8c9b6305ce09a560e41b8d5260048d019b5f988998600194610a3e9f6107d8565b03815a6020945f91f190811561045d575f91610a58575090565b61018e915060203d8111610a79575b610a7181836100de565b81019061053f565b503d610a67565b61018e906102d3565b610a9561049c9161025f565b610a80565b61018e91610acc610ac560149371602d5f8160095f39f35f5f365f5f37365f7360701b815260120190565b8092610a89565b016f5af43d5f5f3e6029573d5ffd5b3d5ff360801b815260100190565b610afc610af661018e9290565b60f81b90565b6001600160f81b03191690565b018092610a89565b01918252565b61018e906104bf565b6104bf565b61025f61018e61018e9290565b610bde91610bc861018e94610b61610b61610b70610bd996610b515f90565b5060405192839160208301610a9a565b602082018103825203826100de565b610b7a60ff610ae9565b929490610b8f610b88825190565b9160200190565b2090610b9a60405190565b9586946020860192610b11601461013694610b11600188610b0960209b9a8c996001600160f81b0319169052565b610bd3610b88825190565b20610b17565b610b25565b61026b565b61018e610120610104565b610bf6610be3565b90602080808080808080808a5f8152015f8152015f8152015f8152015f8152015f8152015f8152015f8152015f905250565b61018e610bee565b61018e90610b25565b61018e670de0b6b3a76400006104bf565b610c5761018e61018e9290565b64ffffffffff1690565b610c69610c28565b50610c8773b33d806a94b6770c9d309e0842a75f8e6edcd5a6610274565b610c905f610c30565b90610c99610c39565b9069eb49809114526420000090610cc069d3c21bcecceda100000091602061037082610274565b825260049082905afa90811561045d57610ce6925f9261046257506103af602091610274565b825260049082905afa90811561045d57610d06925f9261042d57506102a5565b610d0f90610c4a565b5f906103e892606494601e96610d23610be3565b98610d2e908a610492565b6020890152610d3c906104bf565b6040880152610d4a906104bf565b606087015264ffffffffff166080860152151560a0850152610d6b906104a0565b61ffff1660c0840152610d7d906104a0565b61ffff1660e0830152610d8f906104bf565b61010082015290565b939290610dc761011893610db960409360608901908982035f8b01526105e3565b908782036020890152610635565b940152565b916020610118929493610de660408201965f830190610553565b0190610553565b610df561051f565b5f80825260208201526060604082015290565b61018e610ded565b5f5b828110610e1e57505050565b602090610e29610e08565b8184015201610e12565b90610118610e40836104e3565b92602080610e4e86936104cc565b9201910390610e10565b610e6561018e61018e9290565b6001600160401b031690565b61018e61a8c0610e58565b634e487b7160e01b5f52603260045260245ffd5b90610e99825190565b811015610eaa576020809102010190565b610e7c565b610ebc61018e61018e9290565b60ff1690565b92610f11610118979260c096610f04610f1994610efd610879989e9d9b9e610ef360e08c01965f8d019060ff169052565b60208b0190610553565b6040890152565b86820360608801526105a2565b986080850152565b60a0830190610553565b9061117c610f9a73643a45b599d81be3f3a68f37eb3de55ff10673c1610f50610f4b5f6104bf565b6104fa565b610f79610f5f610f4b5f6104bf565b91610b6188610f6d60405190565b94859360208501610d98565b610f84610b88825190565b206e330b8df9e3bc5e553074da58ee9138610422565b92611168610fc97371e9b38d301b5a58cb998c1295045fe276acf600610fc2610413886102e6565b8791610b32565b610ff38691610b61610fda60405190565b63ebfaf04560e01b602082015293849260248401610dcc565b9161107e61107761100c61100760036104bf565b610e33565b976110aa8161108561105661107e6110775f611065611029610e71565b604051600162c6eb9960e01b03196020820152958691602483016001600160401b03909116815260200190565b602082018103825203856100de565b610b2061107061051f565b9687610492565b6020850152565b6040830152565b6110a48b915f9061109e611098836104bf565b85610e90565b526104bf565b90610e90565b50611105816110f161105661107e6110775f6110656110c7610e71565b604051631c10c99d60e11b6020820152958691602483016001600160401b03909116815260200190565b6110a48b9160019061109e611098836104bf565b5150946110655f9161105661111a6001610eaf565b9161112560a06102b7565b9761112f5f6104bf565b919061113a30610274565b9161114560016104bf565b9361114f60405190565b63048dd2c160e21b60208201529b8c9760248901610ec2565b6110a4849160029061109e611098836104bf565b5056fe6080604052600436101561001a575b3615610018575f80fd5b005b5f3560e01c806303314efa146101e4578063089ba42e146101df5780630af2c6ca146101da578063150b7a02146101d55780631aea8a1f146101d05780632659bf26146101cb57806327810b6e146101c657806329dcb0cf146101c15780632dd1c319146101bc57806335faa416146101b75780634162169f146101b257806350929830146101ad5780636b93e8ce146101a85780636cd2b36f146101a3578063794b0c621461019e578063a8b21c1b14610199578063b47bcc381461017b578063b4d7d5bf14610194578063b61d27f61461018f578063bfb652261461018a578063c002d23d14610185578063c6c9bd4714610180578063c886cba51461017b578063ce46450814610176578063d502553414610171578063e1e60edf1461016c578063e268988114610167578063ee55efee146101625763f9b105bf0361000e57610938565b610920565b610908565b6108ed565b6108c0565b6108a5565b6106a4565b61088a565b610803565b6107b0565b610785565b6106d9565b610648565b610606565b6105c3565b6105a8565b610580565b610547565b61052a565b61050f565b6104b6565b61047d565b610450565b610429565b610385565b6102c1565b610294565b610225565b5f9103126101f357565b5f80fd5b6001600160a01b031690565b90565b61020f906101f7565b9052565b6020810192916102239190610206565b565b346101f3576102353660046101e9565b6102667f00000000000000000000000000000000000000000000000000000000000000005b60405191829182610213565b0390f35b805b036101f357565b905035906102238261026a565b906020828203126101f35761020391610273565b346101f3576102666102af6102aa366004610280565b61097a565b60405191829182901515815260200190565b346101f3576102d13660046101e9565b6102666102dc5f5490565b6040515b9182918290815260200190565b61026c816101f7565b90503590610223826102ed565b909182601f830112156101f3578135916001600160401b0383116101f35760200192600183028401116101f357565b906080828203126101f35761034781836102f6565b9261035582602085016102f6565b926103638360408301610273565b9260608201356001600160401b0381116101f3576103819201610303565b9091565b346101f3576102666103a461039b366004610332565b939290926109f6565b604051918291826001600160e01b0319909116815260200190565b0190565b906103e36103dc6103d2845190565b8084529260200190565b9260200190565b905f5b8181106103f35750505090565b9091926104106104096001928651815260200190565b9460200190565b9291016103e6565b6020808252610203929101906103c3565b346101f35761026661044461043f366004610280565b610ba6565b60405191829182610418565b346101f3576104603660046101e9565b61026673643a45b599d81be3f3a68f37eb3de55ff10673c161025a565b346101f35761048d3660046101e9565b6102667f000000000000000000000000000000000000000000000000000000000000000061025a565b346101f3576104c63660046101e9565b6102667f00000000000000000000000000000000000000000000000000000000000000006102dc565b73b33d806a94b6770c9d309e0842a75f8e6edcd5a690565b6102036104ef565b346101f35761051f3660046101e9565b61026661025a610507565b346101f35761053a3660046101e9565b610542610cb9565b604051005b346101f3576105573660046101e9565b6102667f000000000000000000000000000000000000000000000000000000000000000061025a565b346101f3576105903660046101e9565b6102666e330b8df9e3bc5e553074da58ee913861025a565b346101f3576105b83660046101e9565b6102666102dc610cf8565b346101f3576105d33660046101e9565b6102666e11c799980827f52d3137b4abd6e65461025a565b6e33e92db97b4b3becd2c255126c60ac90565b6102036105eb565b346101f3576106163660046101e9565b61026661025a6105fe565b61062e6102036102039290565b61ffff1690565b6102036105dc610621565b610203610635565b346101f3576106583660046101e9565b610266610663610640565b6040519182918261ffff909116815260200190565b6106856102036102039290565b6001600160401b031690565b61020361a8c0610678565b610203610691565b346101f3576106b43660046101e9565b6102666106bf61069c565b604051918291826001600160401b03909116815260200190565b346101f3576106e93660046101e9565b610266610444610d9c565b916060838303126101f35761070982846102f6565b926107178360208301610273565b9260408201356001600160401b0381116101f3576103819201610303565b90825f9392825e0152565b61076161076a6020936103bf93610755815190565b80835293849260200190565b95869101610735565b601f01601f191690565b602080825261020392910190610740565b346101f3576102666107a461079b3660046106f4565b92919091610eca565b60405191829182610774565b346101f3576107c03660046101e9565b610266736f1f2af76a3add953277e9f369242697c87bc6a561025a565b6102036102036102039290565b610203670de0b6b3a76400006107dd565b6102036107ea565b346101f3576108133660046101e9565b6102666102dc6107fb565b634e487b7160e01b5f52603260045260245ffd5b80548210156108525761084a6001915f5260205f2090565b910201905f90565b61081e565b610203916008021c81565b906102039154610857565b5f80548210156101f3576102039161088491610832565b90610862565b346101f3576102666102dc6108a0366004610280565b61086d565b346101f3576108b53660046101e9565b6102666102dc610eea565b346101f3576108d03660046101e9565b6102667371e9b38d301b5a58cb998c1295045fe276acf60061025a565b346101f3576108fd3660046101e9565b6102666102dc610f8f565b346101f35761054261091b366004610280565b61126b565b346101f3576109303660046101e9565b6105426112ff565b346101f35761026661044461094e366004610280565b611572565b9061095d906107dd565b5f5260205260405f2090565b6102039081565b6102039054610969565b610990610995916109885f90565b506001610953565b610970565b6109a56109a15f6107dd565b9190565b141590565b610203906101f7906001600160a01b031682565b610203906109aa565b610203906109be565b6109e96109e36102039263ffffffff1690565b60e01b90565b6001600160e01b03191690565b5050505050610a025f90565b5061020363150b7a026109d0565b610203905b60ff1690565b6102039054610a10565b9060ff905b9181191691161790565b90610a44610203610a4b92151590565b8254610a25565b9055565b90610a5a6002610a1b565b610a7f57610a7391610a6e60016002610a34565b610af6565b906102235f6002610a34565b63558a1e0360e11b5f908152600490fd5b634e487b7160e01b5f52604160045260245ffd5b90601f01601f191681019081106001600160401b03821117610ac557604052565b610a90565b905051906102238261026a565b906020828203126101f35761020391610aca565b6040513d5f823e3d90fd5b50610b5b906020610b0e610b09806105eb565b6109c7565b63e9633f2090610b505f7f000000000000000000000000000000000000000000000000000000000000000093610b4360405190565b9788958694859360e01b90565b835260048301610213565b03925af1918215610ba15761020392610b75575b506116de565b610b959060203d8111610b9a575b610b8d8183610aa4565b810190610ad7565b610b6f565b503d610b83565b610aeb565b610203906060610a4f565b33610be4610bde7f00000000000000000000000000000000000000000000000000000000000000006101f7565b916101f7565b03610bf157610223610c02565b6327568d2f60e11b5f908152600490fd5b610c0c6002610a1b565b610a7f57610c1c60016002610a34565b610c24610c2f565b6102235f6002610a34565b610c38306109c7565b3180610c466109a15f6107dd565b14610ca857610c75817f00000000000000000000000000000000000000000000000000000000000000006118af565b610ca37f7f221332ee403570bf4d61630b58189ea566ff1635269001e9df6a890f413dd8916102e060405190565b0390a1565b63043f9e1160e41b5f908152600490fd5b610223610bb1565b634e487b7160e01b5f52601260045260245ffd5b634e487b7160e01b5f52601160045260245ffd5b8115610cf3570490565b610cc1565b610203610d04306109c7565b31610d0d6107ea565b90610ce9565b90610d2c610d226103d2845490565b925f5260205f2090565b905f5b818110610d3c5750505090565b909192610d60610d59600192610d5187610970565b815260200190565b9460010190565b929101610d2f565b9061020391610d13565b90610223610d8c92610d8360405190565b93848092610d68565b0383610aa4565b61020390610d72565b6102035f610d93565b9392919033610dd6610bde7f00000000000000000000000000000000000000000000000000000000000000006101f7565b03610bf1576102039493929190610ded6002610a1b565b610a7f57610a7394610e0160016002610a34565b610e97565b90825f939282370152565b90916103bf9083908093610e06565b909161020392610e11565b90610223610e3860405190565b9283610aa4565b6001600160401b038111610ac557602090601f01601f19160190565b90610e6d610e6883610e3f565b610e2b565b918252565b3d15610e8b57610e813d610e5b565b903d5f602084013e565b606090565b156101f357565b925f94918594509290610eb5610eac60405190565b93849283610e20565b03925af1610203610ec4610e72565b91610e90565b610203939291906060610da5565b91908201809211610ee557565b610cd5565b610f3e6020610efd610b09610b096105eb565b63531b672290610b507f000000000000000000000000000000000000000000000000000000000000000092610f3160405190565b9586948593849360e01b90565b03915afa908115610ba15761020391610f69915f91610f71575b50610f62306109c7565b3190610ed8565b610d0d6107ea565b610f89915060203d8111610b9a57610b8d8183610aa4565b5f610f58565b5f90610f9c610b096104ef565b5f925b83610fae6109a16102035f5490565b101561103c57610ff06020610fc2846109c7565b631e1d6b7790610fe2610fd86108848a5f610832565b92610f3160405190565b835260048301526024820190565b03915afa8015610ba1576110169261100f925f9261101c575b50610ed8565b9360010190565b92610f9f565b61103591925060203d8111610b9a57610b8d8183610aa4565b905f611009565b925050565b3361106e610bde7f00000000000000000000000000000000000000000000000000000000000000006101f7565b03610bf157610223906110816002610a1b565b610a7f57610c249061109560016002610a34565b6110db565b90505190610223826102ed565b906020828203126101f3576102039161109a565b91908203918211610ee557565b9081526040810192916102239160200152565b61110260206110ee610b09610b096104ef565b636352211e90610fe28592610f3160405190565b03915afa908115610ba1575f9161123d575b50611129610bde611124306109c7565b6101f7565b0361122c57611137306109c7565b31611146610b09610b096104ef565b906342966c6883833b156101f35761116793610fe25f8094610b4360405190565b03925af1918215610ba15761118b9261120f575b50611185306109c7565b316110bb565b9061119581611927565b816111a26109a15f6107dd565b116111e0575b907ff7c4ad8543614916150eecfd8e7fb5d87e48adc2a21544d8ef00829814adaad491610ca36111d760405190565b928392836110c8565b61120a827f00000000000000000000000000000000000000000000000000000000000000006118af565b6111a8565b611226905f61121e8183610aa4565b8101906101e9565b5f61117b565b63845eadf160e01b5f908152600490fd5b61125e915060203d8111611264575b6112568183610aa4565b8101906110a7565b5f611114565b503d61124c565b61022390611041565b91602061022392949361128e60408201965f830190610206565b0190610206565b610a156102036102039290565b61020f90611295565b61020f906107dd565b610223946112ed829897956112e36080966112d96112fa975f60a089019801906112a2565b60208c0190610206565b60408a01906112ab565b8782036060890152610740565b940152565b7f00000000000000000000000000000000000000000000000000000000000000004211156115385761138c6020611358610b097f00000000000000000000000000000000000000000000000000000000000000006109c7565b6370a0823190610b507f000000000000000000000000000000000000000000000000000000000000000092610f3160405190565b03915afa908115610ba1575f9161151a575b507f00000000000000000000000000000000000000000000000000000000000000006114197f00000000000000000000000000000000000000000000000000000000000000009161140a6113f160405190565b63ebfaf04560e01b602082015293849260248401611274565b60208201810382520382610aa4565b611445610b097f00000000000000000000000000000000000000000000000000000000000000006109c7565b7f0000000000000000000000000000000000000000000000000000000000000000915f916001917f00000000000000000000000000000000000000000000000000000000000000009063a8841366833b156101f3576114c76114bc935f979388946114af60405190565b9a8b998a98899760e01b90565b8752600487016112b4565b03925af18015610ba157611505575b50610ca37fcb67f20f64495b30f15524c55f90201dd6571d6b5c19dac183d2aeb25315b2dc916102e060405190565b611514905f61121e8183610aa4565b5f6114d6565b611532915060203d8111610b9a57610b8d8183610aa4565b5f61139e565b63f1d2165f60e01b5f908152600490fd5b906115546002610a1b565b610a7f57610a739161156860016002610a34565b50610203906116de565b610203906060611549565b81810292918115918404141715610ee557565b6001600160401b038111610ac55760208091020190565b909291926115b7610e6882611590565b93818552602080860192028301928184116101f357915b8383106115db5750505050565b602080916115e98486610aca565b8152019201916115ce565b9080601f830112156101f3578151610203926020016115a7565b906020828203126101f35781516001600160401b0381116101f35761020392016115f4565b9061163c825190565b811015610852576020809102010190565b915f1960089290920291821b911b610a2a565b9190611671610203610a4b936107dd565b90835461164d565b80549190600160401b831015610ac5578261169c91600161022395018155610832565b90611660565b905f1990610a2a565b906116bb610203610a4b926107dd565b82546116a2565b929160206112fa6102239360408701908782035f8901526103c3565b6116e7306109c7565b31816116f56109a15f6107dd565b1461189b575b816117086109a15f6107dd565b1461188a576117256109a16102038461171f6107ea565b9061157d565b10610ca8576117645f61173c610b09610b096104ef565b63a0712d68610fe26117508661171f6107ea565b604051879493909687958694859360e01b90565b03925af1908115610ba1575f91611868575b50915f5b806117896109a1610203875190565b10156117d4576117cf906117c96117a76117a38388611633565b5190565b6117b1815f611679565b6117c46117bc5f5490565b916001610953565b6116ab565b60010190565b61177a565b50906117df306109c7565b31806117ed6109a15f6107dd565b11611838575b50611801839161171f6107ea565b7fea0f04b41cddd5ec500067efe1bf727bd9f9e0e68479eb7a80f9bad59bb43f3491610ca361182f60405190565b928392836116c2565b611862907f00000000000000000000000000000000000000000000000000000000000000006118af565b5f6117f3565b61188491503d805f833e61187c8183610aa4565b81019061160e565b5f611776565b6322434a6b60e11b5f908152600490fd5b90506118a981610d0d6107ea565b906116fb565b5f610223928192906118c060405190565b90818003925af16118cf610e72565b50610e90565b8015610ee5575f190190565b634e487b7160e01b5f52603160045260245ffd5b610223915f91611660565b80548015611922575f19019061191f6119198383610832565b906118f5565b55565b6118e1565b611935610990826001610953565b90816119436109a15f6107dd565b146119d6576119955f91611959610223946118d5565b611974611964855490565b61196e60016107dd565b906110bb565b9081810361199a575b505061198e6119898490565b611900565b6001610953565b6118f5565b6117c46117bc6119b06108846119cf9589610832565b926119bf8461169c838b610832565b6119c960016107dd565b90610ed8565b5f8061197d565b505056fea2646970667358221220c01e2905c5fe6c3ed8deb6167619cfde8c8ba1f4fa5e285dd17d8379bb6af39264736f6c634300082100336080604052346019576040516102d761001e82396102d790f35b5f80fdfe60806040526004361015610011575f80fd5b5f3560e01c63ebfaf045036100445761007a565b6001600160a01b031690565b90565b61003d81610025565b0361004457565b5f80fd5b9050359061005582610034565b565b919060408382031261004457610031906100718185610048565b93602001610048565b346100445761009361008d366004610057565b9061017d565b604051005b61003190610025906001600160a01b031682565b61003190610098565b610031906100ac565b634e487b7160e01b5f52604160045260245ffd5b90601f01601f1916810190811067ffffffffffffffff8211176100f457604052565b6100be565b8061003d565b90505190610055826100f9565b9060208282031261004457610031916100ff565b61012990610025565b9052565b6020810192916100559190610120565b6040513d5f823e3d90fd5b6100316100316100319290565b5f91031261004457565b91602061005592949361017960408201965f830190610120565b0152565b90506101c96020610195610190846100b5565b6100b5565b6370a08231906101be6101a7306100b5565b926101b160405190565b9586948593849360e01b90565b83526004830161012d565b03915afa90811561026e575f91610273575b5090816101ee6101ea5f610148565b9190565b116101f7575050565b610190610203916100b5565b906362a6677b90610213306100b5565b9092803b156100445761023b5f809461024661022e60405190565b9788968795869460e01b90565b84526004840161015f565b03925af1801561026e576102575750565b610055905f61026681836100d2565b810190610155565b61013d565b610294915060203d811161029a575b61028c81836100d2565b81019061010c565b5f6101db565b503d61028256fea2646970667358221220a3d4c5029317f75e0610b94e1edbf0097b7a1ed5eb76e775a974784bfa34a62364736f6c63430008210033","linkReferences":{}},"methodIdentifiers":{"DAICO()":"794b0c62","FW()":"2dd1c319","LOOT_IMPL()":"bfb65226","MINT_PRICE()":"c002d23d","MOLOCH_IMPL()":"2659bf26","QUORUM_BPS()":"a8b21c1b","RENDERER()":"6cd2b36f","SHARES_IMPL()":"d5025534","SUMMONER()":"50929830","TIMELOCK_SECS()":"b47bcc38","VOTING_SECS()":"c886cba5","allNftIds()":"b4d7d5bf","burnToDAO(uint256)":"e2689881","burner()":"27810b6e","closeSale()":"ee55efee","dao()":"4162169f","deadline()":"29dcb0cf","execute(address,uint256,bytes)":"b61d27f6","holdsNft(uint256)":"089ba42e","mintFromBalance(uint256)":"f9b105bf","mintFromTap(uint256)":"1aea8a1f","mintableFromBalance()":"6b93e8ce","mintableFromTap()":"ce464508","nftCount()":"0af2c6ca","nftIds(uint256)":"c6c9bd47","onERC721Received(address,address,uint256,bytes)":"150b7a02","shares()":"03314efa","sweep()":"35faa416","totalLockedEth()":"e1e60edf"},"id":20}